{"abi":[{"type":"constructor","inputs":[{"name":"_trustedRelayer","type":"address","internalType":"address"}],"stateMutability":"nonpayable"},{"type":"function","name":"FEE_DENOMINATOR","inputs":[],"outputs":[{"name":"","type":"uint256","internalType":"uint256"}],"stateMutability":"view"},{"type":"function","name":"FEE_NUMERATOR","inputs":[],"outputs":[{"name":"","type":"uint256","internalType":"uint256"}],"stateMutability":"view"},{"type":"function","name":"addAIReply","inputs":[{"name":"_secretId","type":"uint256","internalType":"uint256"},{"name":"_aiReply","type":"string","internalType":"string"}],"outputs":[],"stateMutability":"nonpayable"},{"type":"function","name":"comments","inputs":[{"name":"","type":"uint256","internalType":"uint256"}],"outputs":[{"name":"id","type":"uint256","internalType":"uint256"},{"name":"secretId","type":"uint256","internalType":"uint256"},{"name":"author","type":"address","internalType":"address"},{"name":"content","type":"string","internalType":"string"},{"name":"timestamp","type":"uint256","internalType":"uint256"},{"name":"isActive","type":"bool","internalType":"bool"}],"stateMutability":"view"},{"type":"function","name":"createComment","inputs":[{"name":"_secretId","type":"uint256","internalType":"uint256"},{"name":"_content","type":"string","internalType":"string"}],"outputs":[{"name":"","type":"uint256","internalType":"uint256"}],"stateMutability":"nonpayable"},{"type":"function","name":"createCommentMeta","inputs":[{"name":"_secretId","type":"uint256","internalType":"uint256"},{"name":"_content","type":"string","internalType":"string"},{"name":"_realSender","type":"address","internalType":"address"}],"outputs":[{"name":"","type":"uint256","internalType":"uint256"}],"stateMutability":"nonpayable"},{"type":"function","name":"createSecret","inputs":[{"name":"_content","type":"string","internalType":"string"}],"outputs":[{"name":"","type":"uint256","internalType":"uint256"}],"stateMutability":"nonpayable"},{"type":"function","name":"createSecretMeta","inputs":[{"name":"_content","type":"string","internalType":"string"},{"name":"_realSender","type":"address","internalType":"address"}],"outputs":[{"name":"","type":"uint256","internalType":"uint256"}],"stateMutability":"nonpayable"},{"type":"function","name":"deleteComment","inputs":[{"name":"_commentId","type":"uint256","internalType":"uint256"}],"outputs":[],"stateMutability":"nonpayable"},{"type":"function","name":"deleteSecret","inputs":[{"name":"_secretId","type":"uint256","internalType":"uint256"}],"outputs":[],"stateMutability":"nonpayable"},{"type":"function","name":"getAllSecrets","inputs":[{"name":"_offset","type":"uint256","internalType":"uint256"},{"name":"_limit","type":"uint256","internalType":"uint256"}],"outputs":[{"name":"","type":"tuple[]","internalType":"struct ConfideeV2.Secret[]","components":[{"name":"id","type":"uint256","internalType":"uint256"},{"name":"owner","type":"address","internalType":"address"},{"name":"content","type":"string","internalType":"string"},{"name":"timestamp","type":"uint256","internalType":"uint256"},{"name":"isActive","type":"bool","internalType":"bool"},{"name":"aiReply","type":"string","internalType":"string"},{"name":"aiReplyTimestamp","type":"uint256","internalType":"uint256"},{"name":"totalTips","type":"uint256","internalType":"uint256"}]}],"stateMutability":"view"},{"type":"function","name":"getCommentCount","inputs":[{"name":"_secretId","type":"uint256","internalType":"uint256"}],"outputs":[{"name":"","type":"uint256","internalType":"uint256"}],"stateMutability":"view"},{"type":"function","name":"getLatestSecrets","inputs":[{"name":"_limit","type":"uint256","internalType":"uint256"}],"outputs":[{"name":"","type":"tuple[]","internalType":"struct ConfideeV2.Secret[]","components":[{"name":"id","type":"uint256","internalType":"uint256"},{"name":"owner","type":"address","internalType":"address"},{"name":"content","type":"string","internalType":"string"},{"name":"timestamp","type":"uint256","internalType":"uint256"},{"name":"isActive","type":"bool","internalType":"bool"},{"name":"aiReply","type":"string","internalType":"string"},{"name":"aiReplyTimestamp","type":"uint256","internalType":"uint256"},{"name":"totalTips","type":"uint256","internalType":"uint256"}]}],"stateMutability":"view"},{"type":"function","name":"getLikeCount","inputs":[{"name":"_secretId","type":"uint256","internalType":"uint256"}],"outputs":[{"name":"","type":"uint256","internalType":"uint256"}],"stateMutability":"view"},{"type":"function","name":"getMySecrets","inputs":[],"outputs":[{"name":"","type":"uint256[]","internalType":"uint256[]"}],"stateMutability":"view"},{"type":"function","name":"getOwner","inputs":[],"outputs":[{"name":"","type":"address","internalType":"address"}],"stateMutability":"view"},{"type":"function","name":"getPlatformFee","inputs":[],"outputs":[{"name":"numerator","type":"uint256","internalType":"uint256"},{"name":"denominator","type":"uint256","internalType":"uint256"}],"stateMutability":"pure"},{"type":"function","name":"getSecret","inputs":[{"name":"_secretId","type":"uint256","internalType":"uint256"}],"outputs":[{"name":"","type":"tuple","internalType":"struct ConfideeV2.Secret","components":[{"name":"id","type":"uint256","internalType":"uint256"},{"name":"owner","type":"address","internalType":"address"},{"name":"content","type":"string","internalType":"string"},{"name":"timestamp","type":"uint256","internalType":"uint256"},{"name":"isActive","type":"bool","internalType":"bool"},{"name":"aiReply","type":"string","internalType":"string"},{"name":"aiReplyTimestamp","type":"uint256","internalType":"uint256"},{"name":"totalTips","type":"uint256","internalType":"uint256"}]}],"stateMutability":"view"},{"type":"function","name":"getSecretComments","inputs":[{"name":"_secretId","type":"uint256","internalType":"uint256"}],"outputs":[{"name":"","type":"tuple[]","internalType":"struct ConfideeV2.Comment[]","components":[{"name":"id","type":"uint256","internalType":"uint256"},{"name":"secretId","type":"uint256","internalType":"uint256"},{"name":"author","type":"address","internalType":"address"},{"name":"content","type":"string","internalType":"string"},{"name":"timestamp","type":"uint256","internalType":"uint256"},{"name":"isActive","type":"bool","internalType":"bool"}]}],"stateMutability":"view"},{"type":"function","name":"getSecretLikes","inputs":[{"name":"_secretId","type":"uint256","internalType":"uint256"}],"outputs":[{"name":"","type":"address[]","internalType":"address[]"}],"stateMutability":"view"},{"type":"function","name":"getSharedSecrets","inputs":[],"outputs":[{"name":"","type":"uint256[]","internalType":"uint256[]"}],"stateMutability":"view"},{"type":"function","name":"getSharedWith","inputs":[{"name":"_secretId","type":"uint256","internalType":"uint256"}],"outputs":[{"name":"","type":"address[]","internalType":"address[]"}],"stateMutability":"view"},{"type":"function","name":"getTotalSecrets","inputs":[],"outputs":[{"name":"","type":"uint256","internalType":"uint256"}],"stateMutability":"view"},{"type":"function","name":"getTotalTips","inputs":[{"name":"_secretId","type":"uint256","internalType":"uint256"}],"outputs":[{"name":"","type":"uint256","internalType":"uint256"}],"stateMutability":"view"},{"type":"function","name":"hasUserLiked","inputs":[{"name":"_secretId","type":"uint256","internalType":"uint256"},{"name":"_user","type":"address","internalType":"address"}],"outputs":[{"name":"","type":"bool","internalType":"bool"}],"stateMutability":"view"},{"type":"function","name":"likeSecret","inputs":[{"name":"_secretId","type":"uint256","internalType":"uint256"}],"outputs":[],"stateMutability":"nonpayable"},{"type":"function","name":"likeSecretMeta","inputs":[{"name":"_secretId","type":"uint256","internalType":"uint256"},{"name":"_realSender","type":"address","internalType":"address"}],"outputs":[],"stateMutability":"nonpayable"},{"type":"function","name":"owner","inputs":[],"outputs":[{"name":"","type":"address","internalType":"address"}],"stateMutability":"view"},{"type":"function","name":"revokeAccess","inputs":[{"name":"_secretId","type":"uint256","internalType":"uint256"},{"name":"_revokeFrom","type":"address","internalType":"address"}],"outputs":[],"stateMutability":"nonpayable"},{"type":"function","name":"secrets","inputs":[{"name":"","type":"uint256","internalType":"uint256"}],"outputs":[{"name":"id","type":"uint256","internalType":"uint256"},{"name":"owner","type":"address","internalType":"address"},{"name":"content","type":"string","internalType":"string"},{"name":"timestamp","type":"uint256","internalType":"uint256"},{"name":"isActive","type":"bool","internalType":"bool"},{"name":"aiReply","type":"string","internalType":"string"},{"name":"aiReplyTimestamp","type":"uint256","internalType":"uint256"},{"name":"totalTips","type":"uint256","internalType":"uint256"}],"stateMutability":"view"},{"type":"function","name":"shareSecret","inputs":[{"name":"_secretId","type":"uint256","internalType":"uint256"},{"name":"_sharedWith","type":"address","internalType":"address"}],"outputs":[],"stateMutability":"nonpayable"},{"type":"function","name":"tipPost","inputs":[{"name":"_secretId","type":"uint256","internalType":"uint256"}],"outputs":[],"stateMutability":"payable"},{"type":"function","name":"trustedRelayer","inputs":[],"outputs":[{"name":"","type":"address","internalType":"address"}],"stateMutability":"view"},{"type":"function","name":"unlikeSecret","inputs":[{"name":"_secretId","type":"uint256","internalType":"uint256"}],"outputs":[],"stateMutability":"nonpayable"},{"type":"function","name":"unlikeSecretMeta","inputs":[{"name":"_secretId","type":"uint256","internalType":"uint256"},{"name":"_realSender","type":"address","internalType":"address"}],"outputs":[],"stateMutability":"nonpayable"},{"type":"function","name":"updateTrustedRelayer","inputs":[{"name":"_newRelayer","type":"address","internalType":"address"}],"outputs":[],"stateMutability":"nonpayable"},{"type":"event","name":"AIReplyAdded","inputs":[{"name":"secretId","type":"uint256","indexed":true,"internalType":"uint256"},{"name":"reply","type":"string","indexed":false,"internalType":"string"},{"name":"timestamp","type":"uint256","indexed":false,"internalType":"uint256"}],"anonymous":false},{"type":"event","name":"CommentCreated","inputs":[{"name":"commentId","type":"uint256","indexed":true,"internalType":"uint256"},{"name":"secretId","type":"uint256","indexed":true,"internalType":"uint256"},{"name":"author","type":"address","indexed":true,"internalType":"address"},{"name":"timestamp","type":"uint256","indexed":false,"internalType":"uint256"}],"anonymous":false},{"type":"event","name":"CommentDeleted","inputs":[{"name":"commentId","type":"uint256","indexed":true,"internalType":"uint256"},{"name":"secretId","type":"uint256","indexed":true,"internalType":"uint256"},{"name":"author","type":"address","indexed":true,"internalType":"address"},{"name":"timestamp","type":"uint256","indexed":false,"internalType":"uint256"}],"anonymous":false},{"type":"event","name":"FeeCollected","inputs":[{"name":"owner","type":"address","indexed":true,"internalType":"address"},{"name":"amount","type":"uint256","indexed":false,"internalType":"uint256"}],"anonymous":false},{"type":"event","name":"RelayerUpdated","inputs":[{"name":"oldRelayer","type":"address","indexed":true,"internalType":"address"},{"name":"newRelayer","type":"address","indexed":true,"internalType":"address"}],"anonymous":false},{"type":"event","name":"SecretCreated","inputs":[{"name":"secretId","type":"uint256","indexed":true,"internalType":"uint256"},{"name":"owner","type":"address","indexed":true,"internalType":"address"},{"name":"timestamp","type":"uint256","indexed":false,"internalType":"uint256"}],"anonymous":false},{"type":"event","name":"SecretDeleted","inputs":[{"name":"secretId","type":"uint256","indexed":true,"internalType":"uint256"},{"name":"owner","type":"address","indexed":true,"internalType":"address"},{"name":"timestamp","type":"uint256","indexed":false,"internalType":"uint256"}],"anonymous":false},{"type":"event","name":"SecretLiked","inputs":[{"name":"secretId","type":"uint256","indexed":true,"internalType":"uint256"},{"name":"liker","type":"address","indexed":true,"internalType":"address"},{"name":"timestamp","type":"uint256","indexed":false,"internalType":"uint256"}],"anonymous":false},{"type":"event","name":"SecretRevoked","inputs":[{"name":"secretId","type":"uint256","indexed":true,"internalType":"uint256"},{"name":"owner","type":"address","indexed":true,"internalType":"address"},{"name":"revokedFrom","type":"address","indexed":true,"internalType":"address"},{"name":"timestamp","type":"uint256","indexed":false,"internalType":"uint256"}],"anonymous":false},{"type":"event","name":"SecretShared","inputs":[{"name":"secretId","type":"uint256","indexed":true,"internalType":"uint256"},{"name":"owner","type":"address","indexed":true,"internalType":"address"},{"name":"sharedWith","type":"address","indexed":true,"internalType":"address"},{"name":"timestamp","type":"uint256","indexed":false,"internalType":"uint256"}],"anonymous":false},{"type":"event","name":"SecretUnliked","inputs":[{"name":"secretId","type":"uint256","indexed":true,"internalType":"uint256"},{"name":"unliker","type":"address","indexed":true,"internalType":"address"},{"name":"timestamp","type":"uint256","indexed":false,"internalType":"uint256"}],"anonymous":false},{"type":"event","name":"TipSent","inputs":[{"name":"secretId","type":"uint256","indexed":true,"internalType":"uint256"},{"name":"tipper","type":"address","indexed":true,"internalType":"address"},{"name":"postOwner","type":"address","indexed":true,"internalType":"address"},{"name":"amount","type":"uint256","indexed":false,"internalType":"uint256"},{"name":"fee","type":"uint256","indexed":false,"internalType":"uint256"}],"anonymous":false}],"bytecode":{"object":"0x608060405234801562000010575f80fd5b5060405162003a3d38038062003a3d833981016040819052620000339162000067565b600a8054336001600160a01b031991821617909155600b80549091166001600160a01b039290921691909117905562000096565b5f6020828403121562000078575f80fd5b81516001600160a01b03811681146200008f575f80fd5b9392505050565b61399980620000a45f395ff3fe608060405260043610610207575f3560e01c8063840703ce116101135780639f66c2d61161009d578063d66ba3a81161006d578063d66ba3a814610625578063d73792a914610644578063d9a5ec1b14610659578063de9702a414610678578063f64f837e146106ab575f80fd5b80639f66c2d6146105bf578063a21cb7e0146105d3578063c84ebcaf146105f2578063d5e0a62b14610606575f80fd5b80638da5cb5b116100e35780638da5cb5b146105105780638ebb4c151461052f5780639686b9881461056057806398e6a0581461057f5780639acc17301461059e575f80fd5b8063840703ce146104715780638596c22614610490578063893d20e8146104c75780638d17664d146104e4575f80fd5b8063629f307d116101945780636ea8bc10116101645780636ea8bc10146103d2578063708354bf146103f457806374d3c1f8146104205780637d0b10261461043357806381b6eec614610452575f80fd5b8063629f307d146103495780636841d7261461037557806368782731146103945780636939e40a146103b3575f80fd5b8063286f259a116101da578063286f259a1461029c578063402f0fa0146102c857806340a17985146102f757806341cd47bf146103165780634ef576ad1461032a575f80fd5b80630154852c1461020b578063056d1b891461022c5780630d4bfb4f1461024b5780631969f2901461027d575b5f80fd5b348015610216575f80fd5b5061022a6102253660046131ad565b6106ca565b005b348015610237575f80fd5b5061022a61024636600461320c565b6108be565b348015610256575f80fd5b5061026a610265366004613236565b61094a565b6040519081526020015b60405180910390f35b348015610288575f80fd5b5061026a61029736600461324d565b610a43565b3480156102a7575f80fd5b506102bb6102b6366004613236565b610a54565b60405161027491906132c2565b3480156102d3575f80fd5b506102e76102e236600461320c565b610d85565b6040519015158152602001610274565b348015610302575f80fd5b5061026a6103113660046131ad565b610ddf565b348015610321575f80fd5b5061026a601981565b348015610335575f80fd5b5061026a610344366004613236565b610e20565b348015610354575f80fd5b50610368610363366004613236565b610e61565b604051610274919061336e565b348015610380575f80fd5b5061022a61038f3660046133ae565b610f38565b34801561039f575f80fd5b5061022a6103ae36600461320c565b61102e565b3480156103be575f80fd5b5061022a6103cd366004613236565b6110b5565b3480156103dd575f80fd5b5060408051601981526103e8602082015201610274565b3480156103ff575f80fd5b5061041361040e366004613236565b6110f0565b6040516102749190613449565b61022a61042e366004613236565b6113ff565b34801561043e575f80fd5b5061022a61044d366004613236565b61177f565b34801561045d575f80fd5b5061041361046c3660046134a9565b6118ee565b34801561047c575f80fd5b5061022a61048b366004613236565b611c6e565b34801561049b575f80fd5b50600b546104af906001600160a01b031681565b6040516001600160a01b039091168152602001610274565b3480156104d2575f80fd5b50600a546001600160a01b03166104af565b3480156104ef575f80fd5b506105036104fe366004613236565b611d2b565b60405161027491906134c9565b34801561051b575f80fd5b50600a546104af906001600160a01b031681565b34801561053a575f80fd5b5061054e610549366004613236565b611f21565b604051610274969594939291906134db565b34801561056b575f80fd5b5061022a61057a36600461320c565b611feb565b34801561058a575f80fd5b5061022a610599366004613236565b6121dc565b3480156105a9575f80fd5b506105b2612213565b6040516102749190613521565b3480156105ca575f80fd5b506105b2612271565b3480156105de575f80fd5b5061026a6105ed366004613558565b6122cd565b3480156105fd575f80fd5b5060095461026a565b348015610611575f80fd5b5061026a61062036600461359a565b612330565b348015610630575f80fd5b5061036861063f366004613236565b6123c3565b34801561064f575f80fd5b5061026a6103e881565b348015610664575f80fd5b5061022a61067336600461320c565b61245c565b348015610683575f80fd5b50610697610692366004613236565b612744565b6040516102749897969594939291906135ed565b3480156106b6575f80fd5b5061026a6106c5366004613236565b6128a2565b600a546001600160a01b0316331461071e5760405162461bcd60e51b81526020600482015260126024820152712737ba1031b7b73a3930b1ba1037bbb732b960711b60448201526064015b60405180910390fd5b5f8281526020819052604081205483910361074b5760405162461bcd60e51b815260040161071590613651565b5f82511161079b5760405162461bcd60e51b815260206004820152601a60248201527f456d707479204149207265706c79206e6f7420616c6c6f7765640000000000006044820152606401610715565b6103e8825111156107e25760405162461bcd60e51b81526020600482015260116024820152704149207265706c7920746f6f206c6f6e6760781b6044820152606401610715565b5f83815260208190526040902060050180546107fd90613680565b15905061084c5760405162461bcd60e51b815260206004820152601760248201527f4149207265706c7920616c7265616479206578697374730000000000000000006044820152606401610715565b5f83815260208190526040902060050161086683826136ff565b50425f808581526020019081526020015f2060060181905550827ffe84742fea7e40dccb292eec4d0672b6013f593c91ad69ba4fcc0ca4031e05fd83426040516108b19291906137bb565b60405180910390a2505050565b600b546001600160a01b031633146108e85760405162461bcd60e51b8152600401610715906137dc565b5f828152602081905260408120548391036109155760405162461bcd60e51b815260040161071590613651565b6001600160a01b03821661093b5760405162461bcd60e51b815260040161071590613809565b61094583836128e6565b505050565b5f81815260208190526040812054829082036109785760405162461bcd60e51b815260040161071590613651565b5f838152600760209081526040808320805482518185028101850190935280835291929091908301828280156109cb57602002820191905f5260205f20905b8154815260200190600101908083116109b7575b505050505090505f805b8251811015610a385760065f8483815181106109f3576109f3613839565b60209081029190910181015182528101919091526040015f206005015460ff1615610a265781610a2281613861565b9250505b80610a3081613861565b9150506109d5565b509250505b50919050565b5f610a4e8233612ac6565b92915050565b5f8181526020819052604081205460609183919003610a855760405162461bcd60e51b815260040161071590613651565b5f83815260076020908152604080832080548251818502810185019093528083529192909190830182828015610ad857602002820191905f5260205f20905b815481526020019060010190808311610ac4575b505050505090505f805b8251811015610b455760065f848381518110610b0057610b00613839565b60209081029190910181015182528101919091526040015f206005015460ff1615610b335781610b2f81613861565b9250505b80610b3d81613861565b915050610ae2565b505f8167ffffffffffffffff811115610b6057610b60613110565b604051908082528060200260200182016040528015610bd057816020015b610bbd6040518060c001604052805f81526020015f81526020015f6001600160a01b03168152602001606081526020015f81526020015f151581525090565b815260200190600190039081610b7e5790505b5090505f805b8451811015610d795760065f868381518110610bf457610bf4613839565b60209081029190910181015182528101919091526040015f206005015460ff1615610d675760065f868381518110610c2e57610c2e613839565b602002602001015181526020019081526020015f206040518060c00160405290815f820154815260200160018201548152602001600282015f9054906101000a90046001600160a01b03166001600160a01b03166001600160a01b03168152602001600382018054610c9f90613680565b80601f0160208091040260200160405190810160405280929190818152602001828054610ccb90613680565b8015610d165780601f10610ced57610100808354040283529160200191610d16565b820191905f5260205f20905b815481529060010190602001808311610cf957829003601f168201915b50505091835250506004820154602082015260059091015460ff1615156040909101528351849084908110610d4d57610d4d613839565b60200260200101819052508180610d6390613861565b9250505b80610d7181613861565b915050610bd6565b50909695505050505050565b5f8281526020819052604081205483908203610db35760405162461bcd60e51b815260040161071590613651565b50505f9182526005602090815260408084206001600160a01b0393909316845291905290205460ff1690565b5f8281526020819052604081205483908203610e0d5760405162461bcd60e51b815260040161071590613651565b610e18848433612cd2565b949350505050565b5f8181526020819052604081205482908203610e4e5760405162461bcd60e51b815260040161071590613651565b50505f9081526004602052604090205490565b5f8181526020819052604081205460609183919003610e925760405162461bcd60e51b815260040161071590613651565b5f83815260208190526040902060010154839033906001600160a01b03168114610ece5760405162461bcd60e51b815260040161071590613879565b5f8581526003602090815260409182902080548351818402810184019094528084529091830182828015610f2957602002820191905f5260205f20905b81546001600160a01b03168152600190910190602001808311610f0b575b50505050509350505050919050565b600a546001600160a01b03163314610f875760405162461bcd60e51b81526020600482015260126024820152712737ba1031b7b73a3930b1ba1037bbb732b960711b6044820152606401610715565b6001600160a01b038116610fdd5760405162461bcd60e51b815260206004820152601760248201527f496e76616c69642072656c6179657220616464726573730000000000000000006044820152606401610715565b600b80546001600160a01b038381166001600160a01b0319831681179093556040519116919082907f605ca4e43489fb38b91aa63dd9147cd3847957694b080b9285ec898b34269f0c905f90a35050565b600b546001600160a01b031633146110585760405162461bcd60e51b8152600401610715906137dc565b5f828152602081905260408120548391036110855760405162461bcd60e51b815260040161071590613651565b6001600160a01b0382166110ab5760405162461bcd60e51b815260040161071590613809565b6109458383612ed0565b5f818152602081905260408120548291036110e25760405162461bcd60e51b815260040161071590613651565b6110ec82336128e6565b5050565b60605f82118015611102575060328211155b61114e5760405162461bcd60e51b815260206004820152601e60248201527f4c696d6974206d757374206265206265747765656e203120616e6420353000006044820152606401610715565b6009545f905b6001811015801561116457508382105b156111a2575f8181526020819052604090206004015460ff1615611190578161118c81613861565b9250505b8061119a816138a7565b915050611154565b505f8167ffffffffffffffff8111156111bd576111bd613110565b6040519080825280602002602001820160405280156111f657816020015b6111e36130c6565b8152602001906001900390816111db5790505b506009549091505f905b6001811015801561121057508382105b156113f5575f8181526020819052604090206004015460ff16156113e3575f81815260208181526040918290208251610100810184528154815260018201546001600160a01b031692810192909252600281018054929391929184019161127690613680565b80601f01602080910402602001604051908101604052809291908181526020018280546112a290613680565b80156112ed5780601f106112c4576101008083540402835291602001916112ed565b820191905f5260205f20905b8154815290600101906020018083116112d057829003601f168201915b505050918352505060038201546020820152600482015460ff161515604082015260058201805460609092019161132390613680565b80601f016020809104026020016040519081016040528092919081815260200182805461134f90613680565b801561139a5780601f106113715761010080835404028352916020019161139a565b820191905f5260205f20905b81548152906001019060200180831161137d57829003601f168201915b50505050508152602001600682015481526020016007820154815250508383815181106113c9576113c9613839565b602002602001018190525081806113df90613861565b9250505b806113ed816138a7565b915050611200565b5090949350505050565b5f8181526020819052604081205482910361142c5760405162461bcd60e51b815260040161071590613651565b5f34116114855760405162461bcd60e51b815260206004820152602160248201527f54697020616d6f756e74206d7573742062652067726561746572207468616e206044820152600360fc1b6064820152608401610715565b5f8281526020819052604090206004015460ff166114b55760405162461bcd60e51b8152600401610715906138bc565b5f82815260208190526040902060010154336001600160a01b039091160361151f5760405162461bcd60e51b815260206004820152601860248201527f43616e6e6f742074697020796f7572206f776e20706f737400000000000000006044820152606401610715565b5f6103e861152e6019346138f3565b611538919061390a565b90505f6115458234613929565b5f8581526020819052604081206001810154600790910180549394506001600160a01b039091169234929061157b90849061393c565b90915550505f858152600c60205260408120805434929061159d90849061393c565b90915550506040515f906001600160a01b0383169084908381818185875af1925050503d805f81146115ea576040519150601f19603f3d011682016040523d82523d5f602084013e6115ef565b606091505b50509050806116405760405162461bcd60e51b815260206004820181905260248201527f4661696c656420746f2073656e642074697020746f20706f7374206f776e65726044820152606401610715565b600a546040515f916001600160a01b03169086908381818185875af1925050503d805f811461168a576040519150601f19603f3d011682016040523d82523d5f602084013e61168f565b606091505b50509050806116ec5760405162461bcd60e51b8152602060048201526024808201527f4661696c656420746f2073656e642066656520746f20636f6e7472616374206f6044820152633bb732b960e11b6064820152608401610715565b60408051858152602081018790526001600160a01b0385169133918a917f3299e7b54fa45d301c13b9f3e3457d07539ddd0ab256569554f202fb832ae663910160405180910390a4600a546040518681526001600160a01b03909116907f06c5efeff5c320943d265dc4e5f1af95ad523555ce0c1957e367dda5514572df9060200160405180910390a250505050505050565b5f8181526006602052604081205490036117d45760405162461bcd60e51b815260206004820152601660248201527510dbdb5b595b9d08191bd95cc81b9bdd08195e1a5cdd60521b6044820152606401610715565b5f818152600660205260409020600201546001600160a01b031633146118355760405162461bcd60e51b81526020600482015260166024820152752737ba103a34329031b7b6b6b2b73a1030baba3437b960511b6044820152606401610715565b5f8181526006602052604090206005015460ff166118955760405162461bcd60e51b815260206004820152601760248201527f436f6d6d656e7420616c72656164792064656c657465640000000000000000006044820152606401610715565b5f8181526006602090815260409182902060058101805460ff1916905560010154915142815233929184917ff2a108949a5957b8522f35aa80ffc323d33e0bcd3c4a928750ea82bb07f83356910160405180910390a450565b60605f82118015611900575060328211155b61194c5760405162461bcd60e51b815260206004820152601e60248201527f4c696d6974206d757374206265206265747765656e203120616e6420353000006044820152606401610715565b6009545f905b60018110611993575f8181526020819052604090206004015460ff1615611981578161197d81613861565b9250505b8061198b816138a7565b915050611952565b508084106119d457604080515f80825260208201909252906119cb565b6119b86130c6565b8152602001906001900390816119b05790505b50915050610a4e565b5f6119df8583613929565b90505f8482106119ef57846119f1565b815b90505f8167ffffffffffffffff811115611a0d57611a0d613110565b604051908082528060200260200182016040528015611a4657816020015b611a336130c6565b815260200190600190039081611a2b5790505b5090505f805f60095490505b60018110158015611a6257508483105b15611c60575f8181526020819052604090206004015460ff1615611c4e57898210611c40575f81815260208181526040918290208251610100810184528154815260018201546001600160a01b0316928101929092526002810180549293919291840191611acf90613680565b80601f0160208091040260200160405190810160405280929190818152602001828054611afb90613680565b8015611b465780601f10611b1d57610100808354040283529160200191611b46565b820191905f5260205f20905b815481529060010190602001808311611b2957829003601f168201915b505050918352505060038201546020820152600482015460ff1615156040820152600582018054606090920191611b7c90613680565b80601f0160208091040260200160405190810160405280929190818152602001828054611ba890613680565b8015611bf35780601f10611bca57610100808354040283529160200191611bf3565b820191905f5260205f20905b815481529060010190602001808311611bd657829003601f168201915b5050505050815260200160068201548152602001600782015481525050848481518110611c2257611c22613839565b60200260200101819052508280611c3890613861565b935050611c4e565b81611c4a81613861565b9250505b80611c58816138a7565b915050611a52565b509198975050505050505050565b5f81815260208190526040812054829103611c9b5760405162461bcd60e51b815260040161071590613651565b5f82815260208190526040902060010154829033906001600160a01b03168114611cd75760405162461bcd60e51b815260040161071590613879565b5f8481526020818152604091829020600401805460ff191690559051428152339186917f0f29a237a46d2ffb691115eb65bb4fbe192a4a5f9bebbb3d14e34ea46eb00446910160405180910390a350505050565b611d336130c6565b5f82815260208190526040812054839103611d605760405162461bcd60e51b815260040161071590613651565b5f8381526020819052604090206004015460ff16611d905760405162461bcd60e51b8152600401610715906138bc565b5f83815260208181526040918290208251610100810184528154815260018201546001600160a01b0316928101929092526002810180549293919291840191611dd890613680565b80601f0160208091040260200160405190810160405280929190818152602001828054611e0490613680565b8015611e4f5780601f10611e2657610100808354040283529160200191611e4f565b820191905f5260205f20905b815481529060010190602001808311611e3257829003601f168201915b505050918352505060038201546020820152600482015460ff1615156040820152600582018054606090920191611e8590613680565b80601f0160208091040260200160405190810160405280929190818152602001828054611eb190613680565b8015611efc5780601f10611ed357610100808354040283529160200191611efc565b820191905f5260205f20905b815481529060010190602001808311611edf57829003601f168201915b5050505050815260200160068201548152602001600782015481525050915050919050565b60066020525f90815260409020805460018201546002830154600384018054939492936001600160a01b039092169291611f5a90613680565b80601f0160208091040260200160405190810160405280929190818152602001828054611f8690613680565b8015611fd15780601f10611fa857610100808354040283529160200191611fd1565b820191905f5260205f20905b815481529060010190602001808311611fb457829003601f168201915b50505050600483015460059093015491929160ff16905086565b5f828152602081905260408120548391036120185760405162461bcd60e51b815260040161071590613651565b5f83815260208190526040902060010154839033906001600160a01b031681146120545760405162461bcd60e51b815260040161071590613879565b6001600160a01b03841661209c5760405162461bcd60e51b815260206004820152600f60248201526e496e76616c6964206164647265737360881b6044820152606401610715565b336001600160a01b038516036120f45760405162461bcd60e51b815260206004820152601a60248201527f43616e6e6f74207368617265207769746820796f757273656c660000000000006044820152606401610715565b6120fe8585613001565b1561214b5760405162461bcd60e51b815260206004820181905260248201527f416c7265616479207368617265642077697468207468697320616464726573736044820152606401610715565b5f8581526003602090815260408083208054600180820183559185528385200180546001600160a01b0319166001600160a01b038a1690811790915580855260028452828520805492830181558552938390200188905551428152339188917fbb4d7f93aa2015a1684db9dda62f01667be530db1207c9b2443b3f581665215f910160405180910390a45050505050565b5f818152602081905260408120548291036122095760405162461bcd60e51b815260040161071590613651565b6110ec8233612ed0565b335f9081526002602090815260409182902080548351818402810184019094528084526060939283018282801561226757602002820191905f5260205f20905b815481526020019060010190808311612253575b5050505050905090565b335f9081526001602090815260409182902080548351818402810184019094528084526060939283018282801561226757602002820191905f5260205f2090815481526020019060010190808311612253575050505050905090565b600b545f906001600160a01b031633146122f95760405162461bcd60e51b8152600401610715906137dc565b6001600160a01b03821661231f5760405162461bcd60e51b815260040161071590613809565b6123298383612ac6565b9392505050565b600b545f906001600160a01b0316331461235c5760405162461bcd60e51b8152600401610715906137dc565b5f848152602081905260408120548591036123895760405162461bcd60e51b815260040161071590613651565b6001600160a01b0383166123af5760405162461bcd60e51b815260040161071590613809565b6123ba858585612cd2565b95945050505050565b5f81815260208190526040812054606091839190036123f45760405162461bcd60e51b815260040161071590613651565b5f838152600460209081526040918290208054835181840281018401909452808452909183018282801561244f57602002820191905f5260205f20905b81546001600160a01b03168152600190910190602001808311612431575b5050505050915050919050565b5f828152602081905260408120548391036124895760405162461bcd60e51b815260040161071590613651565b5f83815260208190526040902060010154839033906001600160a01b031681146124c55760405162461bcd60e51b815260040161071590613879565b6124cf8585613001565b61251b5760405162461bcd60e51b815260206004820152601c60248201527f4164647265737320646f6573206e6f74206861766520616363657373000000006044820152606401610715565b5f858152600360205260408120905b815481101561262757856001600160a01b031682828154811061254f5761254f613839565b5f918252602090912001546001600160a01b031603612615578154829061257890600190613929565b8154811061258857612588613839565b905f5260205f20015f9054906101000a90046001600160a01b03168282815481106125b5576125b5613839565b905f5260205f20015f6101000a8154816001600160a01b0302191690836001600160a01b03160217905550818054806125f0576125f061394f565b5f8281526020902081015f1990810180546001600160a01b0319169055019055612627565b8061261f81613861565b91505061252a565b506001600160a01b0385165f908152600260205260408120905b81548110156126ec578782828154811061265d5761265d613839565b905f5260205f200154036126da578154829061267b90600190613929565b8154811061268b5761268b613839565b905f5260205f2001548282815481106126a6576126a6613839565b905f5260205f200181905550818054806126c2576126c261394f565b600190038181905f5260205f20015f905590556126ec565b806126e481613861565b915050612641565b50856001600160a01b0316336001600160a01b0316887f982fa113bb06af3b2c5c596a8a16cf14bd3a91e1ba1b0b91a21ed9638863b6794260405161273391815260200190565b60405180910390a450505050505050565b5f6020819052908152604090208054600182015460028301805492936001600160a01b039092169261277590613680565b80601f01602080910402602001604051908101604052809291908181526020018280546127a190613680565b80156127ec5780601f106127c3576101008083540402835291602001916127ec565b820191905f5260205f20905b8154815290600101906020018083116127cf57829003601f168201915b50505050600383015460048401546005850180549495929460ff90921693509061281590613680565b80601f016020809104026020016040519081016040528092919081815260200182805461284190613680565b801561288c5780601f106128635761010080835404028352916020019161288c565b820191905f5260205f20905b81548152906001019060200180831161286f57829003601f168201915b5050505050908060060154908060070154905088565b5f81815260208190526040812054829082036128d05760405162461bcd60e51b815260040161071590613651565b50505f9081526020819052604090206007015490565b5f8281526005602090815260408083206001600160a01b038516845290915290205460ff166129575760405162461bcd60e51b815260206004820152601960248201527f486176656e2774206c696b6564207468697320736563726574000000000000006044820152606401610715565b5f828152600460205260408120905b8154811015612a6357826001600160a01b031682828154811061298b5761298b613839565b5f918252602090912001546001600160a01b031603612a5157815482906129b490600190613929565b815481106129c4576129c4613839565b905f5260205f20015f9054906101000a90046001600160a01b03168282815481106129f1576129f1613839565b905f5260205f20015f6101000a8154816001600160a01b0302191690836001600160a01b0316021790555081805480612a2c57612a2c61394f565b5f8281526020902081015f1990810180546001600160a01b0319169055019055612a63565b80612a5b81613861565b915050612966565b505f8381526005602090815260408083206001600160a01b03861680855290835292819020805460ff191690555142815285917f85c25b1b10dbde6ecb5fc97a133b67e958db8dff73fc8a122a6b61371ea63f9c910160405180910390a3505050565b5f80835111612b105760405162461bcd60e51b8152602060048201526016602482015275115b5c1d1e4819185d18481b9bdd08185b1b1bddd95960521b6044820152606401610715565b6103e883511115612b6d5760405162461bcd60e51b815260206004820152602160248201527f436f6e74656e7420746f6f206c6f6e6720286d617820313030302063686172736044820152602960f81b6064820152608401610715565b60098054905f612b7c83613861565b909155505060095460408051610100810182528281526001600160a01b038581166020808401918252838501898152426060860152600160808601819052865180840188525f80825260a088019190915260c0870181905260e08701819052888152928390529590912084518155915194820180546001600160a01b031916959093169490941790915591519091906002820190612c1a90826136ff565b5060608201516003820155608082015160048201805460ff191691151591909117905560a08201516005820190612c5190826136ff565b5060c0820151600682015560e0909101516007909101556001600160a01b0383165f8181526001602081815260408084208054938401815584529220018390555182907f38f77abe5d094b76a39b3f2a4e4e1c7822556d3e50f9bbd1299b630324dfbe9690612cc39042815260200190565b60405180910390a39392505050565b5f8381526020819052604081206004015460ff16612d025760405162461bcd60e51b8152600401610715906138bc565b5f835111612d525760405162461bcd60e51b815260206004820152601960248201527f456d70747920636f6d6d656e74206e6f7420616c6c6f776564000000000000006044820152606401610715565b6101f483511115612da55760405162461bcd60e51b815260206004820181905260248201527f436f6d6d656e7420746f6f206c6f6e6720286d617820353030206368617273296044820152606401610715565b60088054905f612db483613861565b90915550506008546040805160c08101825282815260208082018881526001600160a01b03878116848601908152606085018a8152426080870152600160a087018190525f8981526006909652969094208551815592519583019590955593516002820180546001600160a01b0319169190951617909355519091906003820190612e3f90826136ff565b506080820151600482015560a0909101516005909101805460ff19169115159190911790555f85815260076020908152604080832080546001810182559084529282902090920183905590514281526001600160a01b03851691879184917fbfd5d798ea2927e69f7710afa3c75589d6cb77778b1721cbabeb12fe9341da75910160405180910390a4949350505050565b5f8281526020819052604090206004015460ff16612f005760405162461bcd60e51b8152600401610715906138bc565b5f8281526005602090815260408083206001600160a01b038516845290915290205460ff1615612f725760405162461bcd60e51b815260206004820152601960248201527f416c7265616479206c696b6564207468697320736563726574000000000000006044820152606401610715565b5f8281526004602090815260408083208054600180820183559185528385200180546001600160a01b0319166001600160a01b03871690811790915586855260058452828520818652845293829020805460ff191690911790555142815284917fb011cdae423b681ce6aff7cdca6ca05ad2aad38988a6dafb1fe347dfac4c5770910160405180910390a35050565b5f8281526003602090815260408083208054825181850281018501909352808352849383018282801561305b57602002820191905f5260205f20905b81546001600160a01b0316815260019091019060200180831161303d575b505050505090505f5b81518110156130bc57836001600160a01b031682828151811061308957613089613839565b60200260200101516001600160a01b0316036130aa57600192505050610a4e565b806130b481613861565b915050613064565b505f949350505050565b6040518061010001604052805f81526020015f6001600160a01b03168152602001606081526020015f81526020015f15158152602001606081526020015f81526020015f81525090565b634e487b7160e01b5f52604160045260245ffd5b5f82601f830112613133575f80fd5b813567ffffffffffffffff8082111561314e5761314e613110565b604051601f8301601f19908116603f0116810190828211818310171561317657613176613110565b8160405283815286602085880101111561318e575f80fd5b836020870160208301375f602085830101528094505050505092915050565b5f80604083850312156131be575f80fd5b82359150602083013567ffffffffffffffff8111156131db575f80fd5b6131e785828601613124565b9150509250929050565b80356001600160a01b0381168114613207575f80fd5b919050565b5f806040838503121561321d575f80fd5b8235915061322d602084016131f1565b90509250929050565b5f60208284031215613246575f80fd5b5035919050565b5f6020828403121561325d575f80fd5b813567ffffffffffffffff811115613273575f80fd5b610e1884828501613124565b5f81518084525f5b818110156132a357602081850181015186830182015201613287565b505f602082860101526020601f19601f83011685010191505092915050565b5f6020808301818452808551808352604092508286019150828160051b8701018488015f5b8381101561336057888303603f190185528151805184528781015188850152868101516001600160a01b03168785015260608082015160c082870181905291906133338388018261327f565b6080858101519089015260a0948501511515949097019390935250505093860193908601906001016132e7565b509098975050505050505050565b602080825282518282018190525f9190848201906040850190845b81811015610d795783516001600160a01b031683529284019291840191600101613389565b5f602082840312156133be575f80fd5b612329826131f1565b5f6101008251845260018060a01b03602084015116602085015260408301518160408601526133f88286018261327f565b9150506060830151606085015260808301511515608085015260a083015184820360a0860152613428828261327f565b91505060c083015160c085015260e083015160e08501528091505092915050565b5f602080830181845280855180835260408601915060408160051b87010192508387015f5b8281101561349c57603f1988860301845261348a8583516133c7565b9450928501929085019060010161346e565b5092979650505050505050565b5f80604083850312156134ba575f80fd5b50508035926020909101359150565b602081525f61232960208301846133c7565b86815285602082015260018060a01b038516604082015260c060608201525f61350760c083018661327f565b60808301949094525090151560a090910152949350505050565b602080825282518282018190525f9190848201906040850190845b81811015610d795783518352928401929184019160010161353c565b5f8060408385031215613569575f80fd5b823567ffffffffffffffff81111561357f575f80fd5b61358b85828601613124565b92505061322d602084016131f1565b5f805f606084860312156135ac575f80fd5b83359250602084013567ffffffffffffffff8111156135c9575f80fd5b6135d586828701613124565b9250506135e4604085016131f1565b90509250925092565b8881526001600160a01b0388166020820152610100604082018190525f906136178382018a61327f565b9050876060840152861515608084015282810360a0840152613639818761327f565b60c0840195909552505060e001529695505050505050565b60208082526015908201527414d958dc995d08191bd95cc81b9bdd08195e1a5cdd605a1b604082015260600190565b600181811c9082168061369457607f821691505b602082108103610a3d57634e487b7160e01b5f52602260045260245ffd5b601f821115610945575f81815260208120601f850160051c810160208610156136d85750805b601f850160051c820191505b818110156136f7578281556001016136e4565b505050505050565b815167ffffffffffffffff81111561371957613719613110565b61372d816137278454613680565b846136b2565b602080601f831160018114613760575f84156137495750858301515b5f19600386901b1c1916600185901b1785556136f7565b5f85815260208120601f198616915b8281101561378e5788860151825594840194600190910190840161376f565b50858210156137ab57878501515f19600388901b60f8161c191681555b5050505050600190811b01905550565b604081525f6137cd604083018561327f565b90508260208301529392505050565b6020808252601390820152722737ba103a393ab9ba32b2103932b630bcb2b960691b604082015260600190565b602080825260169082015275496e76616c69642073656e646572206164647265737360501b604082015260600190565b634e487b7160e01b5f52603260045260245ffd5b634e487b7160e01b5f52601160045260245ffd5b5f600182016138725761387261384d565b5060010190565b6020808252601490820152732737ba103a34329039b2b1b932ba1037bbb732b960611b604082015260600190565b5f816138b5576138b561384d565b505f190190565b60208082526017908201527f53656372657420686173206265656e2064656c65746564000000000000000000604082015260600190565b8082028115828204841417610a4e57610a4e61384d565b5f8261392457634e487b7160e01b5f52601260045260245ffd5b500490565b81810381811115610a4e57610a4e61384d565b80820180821115610a4e57610a4e61384d565b634e487b7160e01b5f52603160045260245ffdfea264697066735822122007428c62d90c23930e45c378f74bd91feb16d6011476ea1f4e94f265a5eaf1ea64736f6c63430008140033","linkReferences":{}},"methodIdentifiers":{"FEE_DENOMINATOR()":"d73792a9","FEE_NUMERATOR()":"41cd47bf","addAIReply(uint256,string)":"0154852c","comments(uint256)":"8ebb4c15","createComment(uint256,string)":"40a17985","createCommentMeta(uint256,string,address)":"d5e0a62b","createSecret(string)":"1969f290","createSecretMeta(string,address)":"a21cb7e0","deleteComment(uint256)":"7d0b1026","deleteSecret(uint256)":"840703ce","getAllSecrets(uint256,uint256)":"81b6eec6","getCommentCount(uint256)":"0d4bfb4f","getLatestSecrets(uint256)":"708354bf","getLikeCount(uint256)":"4ef576ad","getMySecrets()":"9f66c2d6","getOwner()":"893d20e8","getPlatformFee()":"6ea8bc10","getSecret(uint256)":"8d17664d","getSecretComments(uint256)":"286f259a","getSecretLikes(uint256)":"d66ba3a8","getSharedSecrets()":"9acc1730","getSharedWith(uint256)":"629f307d","getTotalSecrets()":"c84ebcaf","getTotalTips(uint256)":"f64f837e","hasUserLiked(uint256,address)":"402f0fa0","likeSecret(uint256)":"98e6a058","likeSecretMeta(uint256,address)":"68782731","owner()":"8da5cb5b","revokeAccess(uint256,address)":"d9a5ec1b","secrets(uint256)":"de9702a4","shareSecret(uint256,address)":"9686b988","tipPost(uint256)":"74d3c1f8","trustedRelayer()":"8596c226","unlikeSecret(uint256)":"6939e40a","unlikeSecretMeta(uint256,address)":"056d1b89","updateTrustedRelayer(address)":"6841d726"},"id":22}